:100000000C9472000C9491000C9491000C9491004B
:100010000C9491000C9491000C9491000C9491001C
:100020000C9491000C9491000C9491000C9491000C
:100030000C9491000C9491000C9491000C949100FC
:100040000C9491000C9491000C9491000C949100EC
:100050000C9491000C9491000C9491000C949100DC
:100060000C9491000C9491000C9491000C949100CC
:100070000C9491000C9491000C9491000C949100BC
:100080000C9491000C9491000C9491000C949100AC
:100090000C9491000C9491000C9491000C9491009C
:1000A0000C9491000C9491000C9491000C9491008C
:1000B0000C9491000C9491000C9491000C9491007C
:1000C0000C9491000C9491000C9491000C9491006C
:1000D0000C9491000C9491000C9491000C9491005C
:1000E0000C94910011241FBECFEFD1E2DEBFCDBF33
:1000F00012E0A0E0B2E0EEEEFDE000E00BBF02C0D7
:1001000007900D92AC31B107D9F722E0ACE1B2E033
:1001100001C01D92AC35B207E1F70E9406020C94B3
:10012000F5060C9400001092C50087E68093C40089
:1001300088E18093C1008EE08093C2000895FC01A5
:100140002081222351F031969091C00095FFFCCF81
:100150002093C60021912111F7CF08951F926F932C
:100160009F938F9380E092E09F938F938CE192E036
:100170009F938F930E940C0490911C022DB73EB761
:10018000285F3F4F0FB6F8943EBF0FBE2DBF992397
:1001900059F0EDE1F2E08091C00085FFFCCF909333
:1001A000C60091919111F7CF089511B812B817B800
:1001B00018B8AAE0B1E01C92EBE0F1E010821092D6
:1001C0000701109208018FEF8C9383E087B980813B
:1001D000877F806180838081826080830895EBE0E7
:1001E000F1E080818460808385E08A95F1F70000EA
:1001F00080818B7F808385E08A95F1F70000808184
:100200008160808380818460808385E08A95F1F7B6
:10021000000080818B7F808385E08A95F1F7000064
:1002200080818460808385E08A95F1F70000808179
:100230008B7F808385E08A95F1F700008081846060
:10024000808385E08A95F1F7000080818B7F808331
:1002500085E08A95F1F7000080818460808385E0E5
:100260008A95F1F7000080818B7F8083089581E07B
:1002700088B9EBE0F1E080818F7E886080838081A7
:100280008460808385E08A95F1F7000080B19081D9
:100290009B7F90839081977F9061908395E09A9562
:1002A000F1F70000089583E088B9EBE0F1E0808188
:1002B0008D7F80838EE182B98FEF81B980818F7EBF
:1002C0008860808380818460808385E08A95F1F7EF
:1002D000000080818B7F80838081877F8061808325
:1002E00011B812B880818260808385E08A95F1F729
:1002F0000000089588B9EBE0F1E080818D7F808374
:1003000062B98FEF81B980818F7E88608083808120
:100310008460808385E08A95F1F7000080818B7F7F
:1003200080838081877F8061808311B812B880814B
:100330008260808385E08A95F1F70000089582E06D
:1003400088B9EBE0F1E080818D7F808389E082B91C
:100350008FEF81B980818F7E886080838081846007
:10036000808385E08A95F1F7000080818B7F808310
:100370008081877F8061808311B812B8808182601C
:10038000808385E08A95F1F70000089518B8EBE0C6
:10039000F1E090819D7F908382B98FEF81B9808158
:1003A0008F7E8860808380818460808385E08A95E9
:1003B000F1F7000080818B7F80838081877F80615F
:1003C000808311B812B880818260808385E08A952D
:1003D000F1F70000089588B9EBE0F1E080818F7EAD
:1003E0008860808380818460808385E08A95F1F7CE
:1003F000000080B190819B7F90839081977F906176
:10040000908395E09A95F1F7000008950E94D50039
:100410001092C50087E68093C40088E18093C100F4
:100420008EE08093C2000E94EF0060E080E192E0E5
:100430000E94AE0060E081E00E947A010E943701D4
:100440001F928F9385E192E09F938F9380E092E0DB
:100450009F938F938CE192E09F938F930E940C0463
:1004600090911C022DB73EB7285F3F4F0FB6F8940E
:100470003EBF0FBE2DBF992359F0EDE1F2E0809110
:10048000C00085FFFCCF9093C60091919111F7CFEA
:100490008091060181701F928F9388E192E09F9373
:1004A0008F9380E092E09F938F938CE192E09F93F3
:1004B0008F930E940C0490911C02EDB7FEB7389602
:1004C0000FB6F894FEBF0FBEEDBF992359F0EDE1D2
:1004D000F2E08091C00085FFFCCF9093C60091911F
:1004E0009111F7CF0E94530180910B01846080939A
:1004F0000B01F5E0FA95F1F7000080910B018B7F7D
:1005000080930B0125E02A95F1F700000E949F01DE
:1005100080910B01846080930B0135E03A95F1F7EF
:10052000000080910B018B7F80930B0185E08A9501
:10053000F1F7000080910B01846080930B01E5E0EE
:10054000EA95F1F7000080910B018B7F80930B01FE
:10055000F5E0FA95F1F7000080910B01846080933B
:100560000B0125E02A95F1F7000080910B018B7FAC
:1005700080930B0135E03A95F1F7000084E30E9487
:10058000C60180910B01846080930B0185E08A9500
:10059000F1F7000080910B018B7F80930B01E5E068
:1005A000EA95F1F700002AE0D22E38E1E32E32E09E
:1005B000F32E00E012E0CCE1D2E0809106018170E0
:1005C0001F928F93FF92EF921F930F93DF93CF931E
:1005D0000E940C0490911C02EDB7FEB738960FB63E
:1005E000F894FEBF0FBEEDBF992359F0EDE1F2E0A4
:1005F0008091C00085FFFCCF9093C600919191112E
:10060000F7CF80910B01846080930B01F5E0FA95A0
:10061000F1F7000080910B018B7F80930B0125E0A7
:100620002A95F1F7000080910B01846080930B0103
:1006300035E03A95F1F7000080910B018B7F8093B4
:100640000B0185E08A95F1F7000080910B01846031
:1006500080930B01E5E0EA95F1F7000080910B0132
:100660008B7F80930B01F5E0FA95F1F70000809104
:100670000B01846080930B0125E02A95F1F70000BF
:1006800080910B018B7F80930B0135E03A95F1F758
:10069000000080910B01846080930B0185E08A95B6
:1006A000F1F7000080910B018B7F80930B01E5E057
:1006B000EA95F1F7000080910B01846080930B01B3
:1006C000F5E0FA95F1F7000080910B018B7F8093A4
:1006D0000B0125E02A95F1F70000DA94D1106DCFD7
:1006E00089E0E82E82E0F82ECC24C39495E1A92E6F
:1006F00092E0B92E00E012E0CCE1D2E0DD24DA9401
:1007000080910B01846080930B0135E03A95F1F7FD
:10071000000080910B018B7F80930B0185E08A950F
:10072000F1F700008091060180FDEACFC8B8809102
:100730000B018F7E886080930B0180910B01846098
:1007400080930B01E5E0EA95F1F7000090B180910C
:100750000B018B7F80930B0180910B01877F806160
:1007600080930B01F5E0FA95F1F700001F929F933B
:10077000BF92AF921F930F93DF93CF930E940C040D
:1007800090911C02EDB7FEB738960FB6F894FEBFF5
:100790000FBEEDBF992359F0EDE1F2E08091C0006A
:1007A00085FFFCCF9093C60091919111F7CFF7018F
:1007B00091917F0118B880910B018D7F80930B017F
:1007C00092B9D1B880910B018F7E886080930B0124
:1007D00080910B01846080930B01F5E0FA95F1F7AD
:1007E000000080910B018B7F80930B0180910B01A6
:1007F000877F806180930B0111B812B880910B0143
:10080000826080930B0125E02A95F1F70000F70143
:100810008081811175CFFFCF0F931F93CF93DF930B
:10082000CDB7DEB72E970FB6F894DEBF0FBECDBFA3
:100830000D891E8986E08C831A8309838FEF9FE7D9
:100840009E838D83AE01475E5F4F6F89788DCE01A9
:1008500001960E943B04EF81F885E00FF11F1082A2
:100860002E960FB6F894DEBF0FBECDBFDF91CF91AD
:100870001F910F9108952F923F924F925F926F9226
:100880007F928F929F92AF92BF92CF92DF92EF9220
:10089000FF920F931F93CF93DF93CDB7DEB72B97C4
:1008A0000FB6F894DEBF0FBECDBF6C017B018A018D
:1008B000FC0117821682838181FFCCC1CE01019693
:1008C0003C01F6019381F70193FD859193FF81919E
:1008D0007F01882309F4BAC1853239F493FD8591EB
:1008E00093FF81917F01853229F4B60190E00E9447
:1008F0005B06E7CF912C212C312CFFE1F315D8F0CA
:100900008B3279F038F4803279F08332A1F4232DE0
:1009100020611DC08D3261F0803369F4232D216088
:1009200016C0832D8260382EE32DE4603E2E2AC04F
:10093000F32DF8601DC037FC2DC020ED280F2A30A4
:1009400040F08E32B9F436FC81C1232D2064322E62
:1009500019C036FE06C08AE0989E200D1124922E02
:1009600011C0EAE02E9E200D1124222EF32DF062FC
:100970003F2E08C08C3621F4832D8068382E02C0AB
:10098000883641F4F70193FD859193FF81917F01B2
:100990008111B3CF982F9F7D9554933028F40C5F2D
:1009A0001F4F9FE399830DC0833631F0833771F079
:1009B000833509F059C021C0F801808189830E5F19
:1009C0001F4F88248394912C530113C02801F2E017
:1009D0004F0E511CF801A080B18036FE03C0692D76
:1009E00070E002C06FEF7FEFC5010E9450064C011E
:1009F0008201F32DFF773F2E16C0280122E0420E20
:100A0000511CF801A080B18036FE03C0692D70E052
:100A100002C06FEF7FEFC5010E9445064C01F32D28
:100A2000F0683F2E820133FC1BC0822D90E08816B7
:100A30009906B0F4B60180E290E00E945B062A9429
:100A4000F4CFF50137FC859137FE81915F01B60146
:100A500090E00E945B0621102A9421E0821A9108FE
:100A60008114910471F7E8C0843611F0893641F59C
:100A7000F80137FE07C060817181828193810C5F2C
:100A80001F4F08C060817181072E000C880B990BE5
:100A90000E5F1F4FF32DFF763F2E97FF09C09095F5
:100AA0008095709561957F4F8F4F9F4FF0683F2ED7
:100AB0002AE030E0A3010E949706882E861845C0E0
:100AC000853731F4232D2F7EB22E2AE030E025C069
:100AD000932D997FB92E8F36C1F018F4883579F0AF
:100AE000B5C0803719F0883721F0B0C0E92FE06138
:100AF000BE2EB4FE0DC0FB2DF460BF2E09C034FE27
:100B00000AC0292F2660B22E06C028E030E005C0BA
:100B100020E130E002C020E132E0F801B7FE07C07A
:100B200060817181828193810C5F1F4F06C060815B
:100B3000718180E090E00E5F1F4FA3010E94970635
:100B4000882E8618FB2DFF773F2E36FE0DC0232DF5
:100B50002E7FA22E891458F434FE0BC032FC09C03B
:100B6000832D8E7EA82E05C0B82CA32C03C0B82CD4
:100B700001C0B92CA4FE0FC0FE01E80DF11D80815B
:100B8000803321F49A2D997EA92E09C0A2FE06C0B9
:100B9000B394B39404C08A2D867809F0B394A3FC6F
:100BA00011C0A0FE06C0B21488F4280C922C9B1829
:100BB0000EC0B21460F4B60180E290E00E945B06C1
:100BC000B394F7CFB21418F42B1802C0982C212C30
:100BD000A4FE10C0B60180E390E00E945B06A2FE76
:100BE00017C0A1FC03C088E790E002C088E590E050
:100BF000B6010CC08A2D867859F0A1FE02C08BE2A6
:100C000001C080E2A7FC8DE2B60190E00E945B0685
:100C1000891438F4B60180E390E00E945B069A9450
:100C2000F7CF8A94F301E80DF11D8081B60190E0C1
:100C30000E945B068110F5CF222009F442CEB60156
:100C400080E290E00E945B062A94F6CFF60186814E
:100C5000978102C08FEF9FEF2B960FB6F894DEBFFF
:100C60000FBECDBFDF91CF911F910F91FF90EF90FD
:100C7000DF90CF90BF90AF909F908F907F906F90BC
:100C80005F904F903F902F900895FC010590615028
:100C900070400110D8F7809590958E0F9F1F089592
:100CA000FC016150704001900110D8F7809590953B
:100CB0008E0F9F1F08950F931F93CF93DF93FB0118
:100CC000238121FD03C08FEF9FEF2CC022FF16C0B0
:100CD00046815781248135814217530744F4A0810E
:100CE000B1819D012F5F3F4F318320838C932681FB
:100CF00037812F5F3F4F3783268314C08B01EC0170
:100D0000FB010084F185E02D0995892BE1F6D801DE
:100D100016968D919C911797019617969C938E939A
:100D20001697CE01DF91CF911F910F910895FA018F
:100D3000AA27283051F1203181F1E8946F936E7F1A
:100D40006E5F7F4F8F4F9F4FAF4FB1E03ED0B4E00B
:100D50003CD0670F781F891F9A1FA11D680F791F4C
:100D60008A1F911DA11D6A0F711D811D911DA11D5D
:100D700020D009F468943F912AE0269F112430196D
:100D8000305D3193DEF6CF010895462F4770405D08
:100D90004193B3E00FD0C9F7F6CF462F4F70405DB7
:100DA0004A3318F0495D31FD4052419302D0A9F712
:100DB000EACFB4E0A6959795879577956795BA950C
:100DC000C9F700976105710508959B01AC010A2ED2
:100DD00006945795479537952795BA95C9F7620FA9
:0E0DE000731F841F951FA01D0895F894FFCF68
:100DEE00257320253032580A0064616E69656C00E7
:0C0DFE00696E697400737400776368000C
:00000001FF
