:100000000C9434000C943E000C943E000C943E0082
:100010000C943E000C943E000C943E000C943E0068
:100020000C943E000C943E000C943E000C943E0058
:100030000C943E000C943E000C943E000C943E0048
:100040000C943E000C943E000C943E000C943E0038
:100050000C943E000C943E000C943E000C943E0028
:100060000C943E000C943E0011241FBECFEFD8E04C
:10007000DEBFCDBF0E9470000C9473000C94000092
:100080001092C50087E68093C40088E18093C10088
:1000900086E08093C2000895FC012081222379F03C
:1000A000662369F031969091C00095FFFCCF2093B4
:1000B000C60061502191222311F06111F4CF0895FF
:1000C0008091C00087FFFCCF8091C6000895809189
:1000D000C00087FD02C080E008958091C6000895A9
:0A00E00080E090E00895F894FFCF4F
:00000001FF
