:100000000C9476020C948D020C948D020C948D024B
:100010000C948D020C948D020C948D020C948D0224
:100020000C948D020C948D020C948D020C948D0214
:100030000C948D020C948D020C948D020C948D0204
:100040000C948D020C948D020C948D020C948D02F4
:100050000C948D020C948D020C948D020C948D02E4
:100060000C948D020C948D020C948D020C948D02D4
:100070000C948D020C948D020C948D020C948D02C4
:100080000C948D020C948D020C948D020C948D02B4
:100090000C948D020C948D020C948D020C948D02A4
:1000A0000C948D020C948D020C948D020C948D0294
:1000B0000C948D020C948D020C948D020C948D0284
:1000C0000C948D020C948D020C948D020C948D0274
:1000D0000C948D020C948D020C948D020C948D0264
:1000E0000C948D02000000000000000000000000E1
:1000F0000000000000000000000000000000000000
:10010000000000000007C0C7070707070707070729
:10011000070707070707070707070707070707076F
:10012000070707000038FF00000000000000000083
:1001300000000000000000000000000000000000BF
:1001400000070700003F000700000000000000005B
:10015000000000000000000000000000000000009F
:100160000700070000070000070000000000000073
:100170000000000000000000000000000000000778
:10018000000007000007000000070000000000005A
:100190000000000000000000000000000000070058
:1001A000000007000007000000000700000000003A
:1001B0000000000000000000000000000007000038
:1001C000000007000007000000000007000000001A
:1001D0000000000000000000000000000700000018
:1001E00000000700000700000000000007000000FA
:1001F00000000000000000000000000700000000F8
:1002000000000700000700000000000000070000D9
:1002100000000000000000000000070000000000D7
:1002200000000700000700000000000000000700B9
:1002300000000000000000000007000000000000B7
:100240000000070000070000000000000000000799
:100250000000000000000000070000000000000097
:100260000000070000070000000000000000000080
:100270000700000000000007000000000000000070
:100280000000070000070000000000000000000060
:100290000007000000000700000000000000000050
:1002A0000000070000070000000000000000000040
:1002B0000000070000070000000000000000000030
:1002C0000000070000070000000000000000000020
:1002D0000000000707000000000000000000000010
:1002E0000000070000070000000000000000000000
:1002F00000000007070000000000000000000000F0
:1003000000000700000700000000000000000000DF
:1003100000000700000700000000000000000000CF
:1003200000000700000700000000000000000000BF
:1003300000070000000007000000000000000000AF
:10034000000007000007000000000000000000009F
:10035000070000000000000700000000000000008F
:100360000000070000070000000000000000000778
:100370000000000000000000070000000000000076
:100380000000070000070000000000000000070058
:100390000000000000000000000700000000000056
:1003A0000000070000070000000000000007000038
:1003B0000000000000000000000007000000000036
:1003C0000000070000070000000000000700000018
:1003D0000000000000000000000000070000000016
:1003E00000000700000700000000000700000000F8
:1003F00000000000000000000000000007000000F6
:1004000000000700000700000000070000000000D7
:1004100000000000000000000000000000070000D5
:1004200000000700000700000007000000000000B7
:1004300000000000000000000000000000000700B5
:100440000000070000070000070000000000000097
:100450000000000000000000000000000000000795
:100460000000070000070007000000000000000077
:10047000000000000000000000000000000000007C
:100480000700070000070700000000000000000050
:10049000000000000000000000000000000000005C
:1004A00000070700000707070707070707070707F1
:1004B00007070707070707070707070707070707CC
:1004C0000707070000000000000000000000000017
:1004D000000000000000000000000000000000001C
:1004E00000000000070707070000000011241FBEDE
:1004F000CFEFD1E2DEBFCDBF12E0A0E0B2E0E0E19D
:10050000F7E000E00BBF02C007900D92AE32B107DA
:10051000D9F70E94F5020C9486030C94000098B958
:1005200082B960930B01E8E0F1E080818B7F8083EA
:10053000808184608083089598B982B9ABE0B1E08E
:100540006C93E8E0F1E020812B7F20832081246000
:100550002083019698B982B97C9380818B7F8083B8
:1005600080818460808308951092C50083E3809326
:10057000C40088E18093C10086E08093C2000895A2
:10058000FC012081222351F031969091C00095FF0B
:10059000FCCF2093C60021912111F7CF0895FC01D3
:1005A0002081222351F031969091C00095FFFCCF1D
:1005B0002093C60021912111F7CF8091C00085FFC3
:1005C000FCCF8AE08093C60008958091C00087FF29
:1005D000FCCF8091C60008958091C00087FD02C0C5
:1005E00080E008958091C600089587E08093070118
:1005F000809308018FEF87B981B980930A0118B8F9
:1006000012B810920B010E94B40282E092E00E94A4
:10061000CF0288E092E00E94CF02809108018E7F95
:10062000809308014FEF80E090E051E014C028B9BA
:1006300082B980930B01209108012B7F2093080140
:1006400020910801246020930801019641508115F2
:1006500024E0920751F0292F33272130310539F753
:1006600058B982B940930B01E6CF809108018160AF
:10067000809308018AE192E00E94CF0280910801F4
:100680008D7F8093080180E090E04FEF78E367EC86
:1006900057E011C018B882B950930B01209108019E
:1006A0002B7F2093080120910801246020930801EA
:1006B000019697FD1AC09C012227232B59F39C0118
:1006C000332798B982B92115310519F460930B01CC
:1006D000E5CF21303105B9F02F3F310589F02E3FAC
:1006E000310589F010920B01D9CF80910801826009
:1006F0008093080188E292E00E94CF020000FECFC2
:1007000070930B01CBCF40930B01C8CFF894FFCF70
:100710000804524541445900736574757020706136
:100720006C657474652072616D00736574757020FA
:0E0730007667612072616D00646F6E65000077
:00000001FF
