:100000000C9472080C9489080C9489080C94890843
:100010000C9489080C9489080C9489080C9489081C
:100020000C9489080C9489080C9489080C9489080C
:100030000C9489080C9489080C9489080C948908FC
:100040000C9489080C9489080C9489080C948908EC
:100050000C9489080C9489080C9489080C948908DC
:100060000C9489080C9489080C9489080C948908CC
:100070000C9489080C9489080C9489080C948908BC
:100080000C9489080C9489080C9489080C948908AC
:100090000C9489080C9489080C9489080C9489089C
:1000A0000C9489080C9489080C9489080C9489088C
:1000B0000C9489080C9489080C9489080C9489087C
:1000C0000C9489080C9489080C9489080C9489086C
:1000D0000C9489080C9489080C9489080C9489085C
:1000E0000C9489085555000005005555050500502C
:1000F000505555005000000000000000330300334D
:1001000033033333003033330000000000000011AC
:100110000100101111001101001000001010110158
:10012000000011000000111001000000000000009C
:1001300000000000000000000000000000000000BF
:1001400000000000000000000000000000000000AF
:10015000000000000000000000000000000000009F
:10016000000000000000000000000000000000008F
:10017000000000000000000000000000000000007F
:10018000000000000000000000000000000000006F
:10019000000000000000000000000000000000005F
:1001A000000000000000000000000000000000004F
:1001B000000000000000000000000000000000003F
:1001C000000000000000000000000000000000002F
:1001D000000000000000000000000000000000001F
:1001E0000000000005500550050005000505005001
:1001F00050005000500000002002000003330003B4
:100200000000033003300000000000000000000187
:10021000110010000000011100100000101000116A
:10022000001011000010111111000000000000006A
:1002300000000000000000000000000000000000BE
:1002400000000000000000000000000000000000AE
:10025000000000000000000000000000000000009E
:10026000000000000000000000000000000000008E
:10027000000000000000000000000000000000007E
:10028000000000000000000000000000000000006E
:10029000000000000000000000000000000000005E
:1002A000000000000000000000000000000000004E
:1002B000000000000000000000000000000000003E
:1002C000000000000000000000000000000000002E
:1002D000000000000000000000000000000000001E
:1002E0000000000005500550500005500505005065
:1002F00050005500500000002002000003300003B1
:100300000000030003300000002022220200000150
:10031000100110000000011000100000101000106B
:100320000010100000111111110100000000000068
:1003300000000000000000000000000000000000BD
:1003400000000000000000000000000000000000AD
:10035000000000000000000000000000000000009D
:10036000000000000000000000000000000000008D
:10037000000000000000000000000000000000007D
:10038000000000000000000000000000000000006D
:10039000000000000000000000000000000000005D
:1003A000000000000000000000000000000000004D
:1003B000000000000000000000000000000000003D
:1003C000000000000000000000000000000000002D
:1003D000000000000000000000000000000000001D
:1003E00000000000555500505000555500050050C4
:1003F0005050050005050020222202000330003382
:10040000330003000330330300000000000000014C
:100410000001101100000110011000001010001167
:100420000001100000101111110000000000000078
:1004300000000000000000000000000000000000BC
:1004400000000000000000000000000000000000AC
:10045000000000000000000000000000000000009C
:10046000000000000000000000000000000000008C
:10047000000000000000000000000000000000007C
:10048000000000000000000000000000000000006C
:10049000000000000000000000000000000000005C
:1004A000000000000000000000000000000000004C
:1004B000000000000000000000000000000000003C
:1004C000000000000000000000000000000000002C
:1004D000000000000000000000000000000000001C
:1004E0000000000005000005500055000005005008
:1004F00050550000050500202222020003300303AE
:10050000000003000330000000202222020000014E
:100510000001100000000110011000001010010186
:100520000001100000001111110000000000000087
:1005300000000000000000000000000000000000BB
:1005400000000000000000000000000000000000AB
:10055000000000000000000000000000000000009B
:10056000000000000000000000000000000000008B
:10057000000000000000000000000000000000007B
:10058000000000000000000000000000000000006B
:10059000000000000000000000000000000000005B
:1005A000000000000000000000000000000000004B
:1005B000000000000000000000000000000000003B
:1005C000000000000000000000000000000000002B
:1005D000000000000000000000000000000000001B
:1005E00000000000050000555505050000050050FD
:1005F00050000000555500002002000003300303A6
:100600000000033003300000000000000000000183
:100610000001100000000110001000001110110175
:100620001011110100001111010000000000000074
:1006300000000000000000000000000000000000BA
:1006400000000000000000000000000000000000AA
:10065000000000000000000000000000000000009A
:10066000000000000000000000000000000000008A
:10067000000000000000000000000000000000007A
:10068000000000000000000000000000000000006A
:10069000000000000000000000000000000000005A
:1006A000000000000000000000000000000000004A
:1006B000000000000000000000000000000000003A
:1006C000000000000000000000000000000000002A
:1006D000000000000000000000000000000000001A
:1006E000000000000500000500050500005500554C
:1006F000500000500050000020020000333300037F
:100700000000033300300000000000000000000182
:100710001001100000000111000001100110000084
:100720001000000100001011000000000000000097
:1007300000000000000000000000000000000000B9
:1007400000000000000000000000000000000000A9
:100750000000000000000000000000000000000099
:100760000000000000000000000000000000000089
:100770000000000000000000000000000000000079
:100780000000000000000000000000000000000069
:100790000000000000000000000000000000000059
:1007A0000000000000000000000000000000000049
:1007B0000000000000000000000000000000000039
:1007C0000000000000000000000000000000000029
:1007D0000000000000000000000000000000000019
:1007E00000000000050050050005050000505505FB
:1007F00050000050005000000000000033000033A3
:1008000033033303003033330000000000000011D5
:100810001100101101001101000010110010000062
:1008200010000010000000010000000000000000A7
:1008300000000000000000000000000000000000B8
:1008400000000000000000000000000000000000A8
:100850000000000000000000000000000000000098
:100860000000000000000000000000000000000088
:100AE00000000000001011111111010000000000B1
:100AF00000000000000000000000000000000000F6
:100B000000000000000000000000000000000000E5
:100B100000000000000000000000000000000000D5
:100B200000000000000000000000000000000000C5
:100B300000000000000000000000000000000000B5
:100B400000000000000000000000000000000000A5
:100B50000000000000000000000000000000000095
:100B60000000000000000000000000000000000085
:100B70000000000000000000000000000000000075
:100B80000000000000000000000000000000000065
:100B90000000000000000000000000000000000055
:100BA0000000000000000000000000000000000045
:100BB0000000000000000000000000000000000035
:100BC0000000000000000000000000000000000025
:100BD0000000000000000000000000000000000015
:100BE00000000000000000000000100100000000F4
:100BF00000001011111111010000000000000000A0
:100C000000000000000000000000000000000000E4
:100C100000000000000000000000000000000000D4
:100C200000000000000000000000000000000000C4
:100C300000000000000000000000000000000000B4
:100C400000000000000000000000000000000000A4
:100C50000000000000000000000000000000000094
:100C60000000000000000000000000000000000084
:100C70000000000000000000000000000000000074
:100C80000000000000000000000000000000000064
:100C90000000000000000000000000000000000054
:100CA0000000000000000000000000000000000044
:100CB0000000000000000000000000000000000034
:100CC0000000000000000000000000000000000024
:100CD0000000000000000000000000000000000014
:100CE00000000000000000000000001011000000E3
:100CF00000111100000000101101000000000000B0
:100D000000100000000000000000000000000000D3
:100D100000000000000000000000000000000000D3
:100D200000000000000000000000000000000000C3
:100D300000000000000000000000000000000000B3
:100D400000000000000000000000000000000000A3
:100D50000000000000000000000000000000000093
:100D60000000000000000000000000000000000083
:100D70000000000000000000000000000000000073
:100D80000000000000000000000000000000000063
:100D90000000000000000000000000000000000053
:100DA0000000000000000000000000000000000043
:100DB0000000000000000000000000000000000033
:100DC0000000000000000000000000000000000023
:100DD0000000000000000000000000000000000013
:100DE00000000000000000000000000010111111C0
:100DF000110000000000000000101111111111116C
:100E000011010000000000000000000000000000D0
:100E100000000000000000000000000000000000D2
:100E200000000000000000000000000000000000C2
:100E300000000000000000000000000000000000B2
:100E400000000000000000000000000000000000A2
:1010E0000000000011241FBECFEFD1E2DEBFCDBF54
:1010F00012E0A0E0B2E0E8ECF2E100E00BBF02C0D9
:1011000007900D92A234B107D9F70E94D6080C942B
:1011100062090C9400001092C50083E38093C40020
:1011200088E18093C10086E08093C2000895FC01AD
:101130002081222379F0662369F031969091C000D6
:1011400095FFFCCF2093C60061502191222311F01E
:101150006111F4CF0895FC012081222379F06623E8
:1011600069F031969091C00095FFFCCF2093C600A6
:1011700061502191222311F06111F4CF8091C000C0
:1011800085FFFCCF8AE08093C60008958091C0005F
:1011900087FFFCCF8091C60008958091C00087FD35
:1011A00002C080E008958091C600089511B810BA79
:1011B00013BA12B811BA14BA10920A0110920B01A4
:1011C0008DE08093070185E0809308010E948B08E1
:1011D00068E080E092E00E94AB088091060181FD0A
:1011E000FCCF809108018E7F809308018FE39CE9FA
:1011F0000197F1F700C000008091060181FD5CC0FD
:101200006FE089E092E00E94AB088FEF81B980BB6C
:1012100081E083BB8091080188608093080160E0D1
:1012200070E0AFEF362F562F442780E090E082B970
:1012300031BB14BAFC01E42BF52BFF70EC51FF4FCE
:10124000E491A0930A01E0930B01209108012B7F08
:101250002093080125E32A95F1F700002091080169
:1012600024602093080110920B0110920A0101964C
:10127000811521E09207D9F66F5F7F4F603E81E0D4
:10128000780781F66FE08BE292E00E94AB0812B81B
:1012900011BA14BA11B810BA13BA10920B01109205
:1012A0000A018091080181608093080168E08AE367
:1012B00092E00E94AB08FFCF64E188E192E00E94D7
:0812C000AB08FFCFF894FFCF4B
:1012C80072656164792E2E2E00766964656F5F649D
:1012D800697361626C656400766964656F5F4E4F1F
:1012E800545F64697361626C65640072616D206447
:1012F80061746120736574757000646F6E652E2E5D
:021308002E00B5
:00000001FF
