:100000000C947C020C9493020C9493020C94930233
:100010000C9493020C9493020C9493020C9493020C
:100020000C9493020C9493020C9493020C949302FC
:100030000C9493020C9493020C9493020C949302EC
:100040000C9493020C9493020C9493020C949302DC
:100050000C9493020C9493020C9493020C949302CC
:100060000C9493020C9493020C9493020C949302BC
:100070000C9493020C9493020C9493020C949302AC
:100080000C9493020C9493020C9493020C9493029C
:100090000C9493020C9493020C9493020C9493028C
:1000A0000C9493020C9493020C9493020C9493027C
:1000B0000C9493020C9493020C9493020C9493026C
:1000C0000C9493020C9493020C9493020C9493025C
:1000D0000C9493020C9493020C9493020C9493024C
:1000E0000C9493026364696E6F70737578585B004B
:1000F0000000000000000000000000000000000000
:1001000000000000000000000000000000000000EF
:100110000007C0C7070707070707070707070707FD
:100120000707070707070707070707070707070066
:100130000038FF0000000000000000000000000088
:1001400000000000000000000000000000070700A1
:10015000003F000700000000000000000000000059
:100160000000000000000000000000000700070081
:100170000007000007000000000000000000000071
:100180000000000000000000000000070000070061
:100190000007000000070000000000000000000051
:1001A0000000000000000000000007000000070041
:1001B0000007000000000700000000000000000031
:1001C0000000000000000000000700000000070021
:1001D0000007000000000007000000000000000011
:1001E0000000000000000000070000000000070001
:1001F00000070000000000000700000000000000F1
:1002000000000000000000070000000000000700E0
:1002100000070000000000000007000000000000D0
:1002200000000000000007000000000000000700C0
:1002300000070000000000000000070000000000B0
:1002400000000000000700000000000000000700A0
:100250000007000000000000000000070000000090
:100260000000000007000000000000000000070080
:100270000007000000000000000000000700000070
:100280000000000700000000000000000000070060
:100290000007000000000000000000000007000050
:1002A0000000070000000000000000000000070040
:1002B0000007000000000000000000000000070030
:1002C0000007000000000000000000000000070020
:1002D0000007000000000000000000000000000710
:1002E0000700000000000000000000000000070000
:1002F00000070000000000000000000000000007F0
:1003000007000000000000000000000000000700DF
:1003100000070000000000000000000000000700CF
:1003200000070000000000000000000000000700BF
:1003300000070000000000000000000000070000AF
:10034000000007000000000000000000000007009F
:10035000000700000000000000000000070000008F
:10036000000000070000000000000000000007007F
:10037000000700000000000000000007000000006F
:10038000000000000700000000000000000007005F
:10039000000700000000000000000700000000004F
:1003A000000000000007000000000000000007003F
:1003B000000700000000000000070000000000002F
:1003C000000000000000070000000000000007001F
:1003D000000700000000000007000000000000000F
:1003E00000000000000000070000000000000700FF
:1003F00000070000000000070000000000000000EF
:1004000000000000000000000700000000000700DE
:1004100000070000000007000000000000000000CE
:1004200000000000000000000007000000000700BE
:1004300000070000000700000000000000000000AE
:10044000000000000000000000000700000007009E
:10045000000700000700000000000000000000008E
:10046000000000000000000000000007000007007E
:10047000000700070000000000000000000000006E
:10048000000000000000000000000000070007005E
:10049000000707000000000000000000000000004E
:1004A000000000000000000000000000000707003E
:1004B00000070707070707070707070707070707D3
:1004C00007070707070707070707070707070700C3
:1004D000000000000000000000000000000000001C
:1004E000000000000000000000000000000000000C
:1004F000070707070000000011241FBECFEFD1E25D
:10050000DEBFCDBF12E0A0E0B2E0E4E3F7E100E03F
:100510000BBF02C007900D92A43AB107D9F70E9411
:1005200080030C94980B0C94000098B982B96093E6
:100530000B01E8E0F1E080818D7F80838081826023
:100540008083089598B982B9ABE0B1E06C93E8E09C
:10055000F1E020812D7F208320812260208301967D
:1005600098B982B97C9380818D7F808380818260FD
:1005700080830895CF93DF9300D000D01F92CDB732
:10058000DEB70E94700389830E9470038A831B82F6
:100590001D821C82CE0104969F938F9387E992E07F
:1005A0009F938F93CE0101969F938F930E946A052C
:1005B0000F900F900F900F900F900F908C810F90D5
:1005C0000F900F900F900F90DF91CF9108959F9211
:1005D000AF92BF92CF92DF92EF92FF920F931F9351
:1005E000CF93DF9300D000D01F92CDB7DEB70E942B
:1005F000700389830E9470038A831B821D821C8280
:100600007E0124E0E20EF11CFF92EF9207E912E076
:100610001F930F93CE0101965C019F938F930E94CD
:100620006A059C800E94700389830E9470038A83FC
:100630001B821D821C82FF92EF921F930F93BF9229
:10064000AF920E946A058C81D92CC12C0FB6F89408
:10065000DEBF0FBECDBF9601282BC9010F900F90B2
:100660000F900F900F90DF91CF911F910F91FF90FE
:10067000EF90DF90CF90BF90AF909F900895109231
:10068000C50083E38093C40088E18093C10086E0C5
:100690008093C2000895FC012081222351F03196FD
:1006A0009091C00095FFFCCF2093C60021912111AD
:1006B000F7CF0895FC012081222351F031969091CB
:1006C000C00095FFFCCF2093C60021912111F7CFE8
:1006D0008091C00085FFFCCF8AE08093C60008951A
:1006E0008091C00087FFFCCF8091C6000895809163
:1006F000C00087FD02C080E008958091C600089583
:10070000CF93DF93CDB7DEB7A7970FB6F894DEBFD0
:100710000FBECDBF83E080930701809308018FEF68
:1007200087B981B980930A0118B812B810920B01E9
:100730000E943F0388E1E0E0F2E09E012F5F3F4F1F
:100740004901D90101900D928A95E1F7CE014C96AD
:100750003C01285E3F4F290187E9A82E82E0B82E90
:1007600091E3C92E92E0D92E14E60E94770311502E
:10077000E1F78AE192E00E944B030E947003898FA7
:100780000E9470038A8F1B8E1D8E1C8E7F926F922B
:10079000BF92AF925F924F920E946A05FC8C0E94BA
:1007A0007003898F0E9470038A8F1B8E1D8E1C8E92
:1007B0007F926F92BF92AF925F924F920E946A05B2
:1007C0000C8D0E947003182F0FB6F894DEBF0FBE79
:1007D000CDBF8032B1F082E292E00E945A031F92B4
:1007E0001F93DF92CF929F928F920E943B05C4018C
:1007F0000E945A030F900F900F900F900F900F9040
:10080000B3CF0E947003898F0E9470038A8F1B8E62
:100810001D8E1C8E7F926F92BF92AF925F924F920D
:100820000E946A059C8D9FA30E947003898F0E947D
:1008300070038A8F1B8E1D8E1C8E7F926F92BF92CB
:10084000AF925F924F920E946A051C8D0E947003C6
:100850000FB6F894DEBF0FBECDBF803229F088E31B
:1008600092E00E945A0380CF0E947003898F0E94F9
:1008700070038A8F1B8E1D8E1C8E7F926F92BF928B
:10088000AF925F924F920E946A052C8C3D8C0E9421
:1008900070030F900F900F900F900F900F90803279
:1008A00029F087E492E00E945A035ECF0E94700311
:1008B000898F0E9470038A8F1B8E1D8E1C8E7F92E3
:1008C0006F92BF92AF925F924F920E946A058C8D99
:1008D0009D8D98A38F8F0E9470030F900F900F90A3
:1008E0000F900F900F90803229F086E592E00E94E1
:1008F0005A033ACF0E947003898F0E9470038A8F37
:100900001B8E1D8E1C8E7F926F92BF92AF925F9254
:100910004F920E946A052C8D3D8D3AA329A30E9417
:1009200070030F900F900F900F900F900F908032E8
:1009300029F085E692E00E945A0316CF0E94BA027F
:100940008E8F0E947003E82E3DE0831739F084E714
:1009500092E00E945A031F92EF9243CFFCA21BA287
:10096000EBA0FCA0E02A8FA18EA31DA22DA13EA189
:10097000212B89011F923E8D3F9389A19AA199272E
:100980009F938F938F8D98A199279F938F93C101E8
:1009900099279F938F931F930F93FF92EF9283E872
:1009A00092E09F938F939F928F920E943B058BE9D9
:1009B00092E00E944B03C4010E945A0382EA92E033
:1009C0000E945A03809108018E7F80930801B7012D
:1009D00080E090E00E94A202B80182E090E00E94D4
:1009E000A20218B834E032B920920B0180910801BC
:1009F0008D7F8093080180910801826080930801B7
:100A000018B885E082B99F8D90930B018091080101
:100A10008D7F809308018091080182608093080196
:100A200018B826E022B939A130930B018091080152
:100A30008D7F809308018091080182608093080176
:100A400018B887E082B99E8D90930B0180910801C0
:100A50008D7F809308018091080182608093080156
:100A6000809108018160809308010FB6F894DEBF81
:100A70000FBECDBF79CE0F931F93CF93DF93CDB72A
:100A8000DEB72E970FB6F894DEBF0FBECDBF0D892F
:100A90001E8986E08C831A8309838FEF9FE79E83EC
:100AA0008D83AE01475E5F4F6F89788DCE010196D1
:100AB0000E948C05EF81F885E00FF11F10822E96C1
:100AC0000FB6F894DEBF0FBECDBFDF91CF911F915F
:100AD0000F910895CF93DF93CDB7DEB72E970FB662
:100AE000F894DEBF0FBECDBF85E08C838B899C89D7
:100AF0009A838983AE01495E5F4F6D897E89CE01FD
:100B000001960E9455092E960FB6F894DEBF0FBECF
:100B1000CDBFDF91CF9108952F923F924F925F9278
:100B20006F927F928F929F92AF92BF92CF92DF92FD
:100B3000EF92FF920F931F93CF93DF93CDB7DEB762
:100B40002B970FB6F894DEBF0FBECDBF6C017B01B3
:100B50008A01FC0117821682838181FFCCC1CE01FC
:100B600001963C01F6019381F70193FD859193FF76
:100B700081917F01882309F4BAC1853239F493FD4C
:100B8000859193FF81917F01853229F4B60190E030
:100B90000E94E20AE7CF912C212C312CFFE1F315C2
:100BA000D8F08B3279F038F4803279F08332A1F4C6
:100BB000232D20611DC08D3261F0803369F4232D17
:100BC000216016C0832D8260382EE32DE4603E2E16
:100BD0002AC0F32DF8601DC037FC2DC020ED280F72
:100BE0002A3040F08E32B9F436FC81C1232D2064C6
:100BF000322E19C036FE06C08AE0989E200D1124C0
:100C0000922E11C0EAE02E9E200D1124222EF32DEB
:100C1000F0623F2E08C08C3621F4832D8068382E78
:100C200002C0883641F4F70193FD859193FF8191CD
:100C30007F018111B3CF982F9F7D9554933028F475
:100C40000C5F1F4F9FE399830DC0833631F08337CC
:100C500071F0833509F059C021C0F8018081898382
:100C60000E5F1F4F88248394912C530113C02801D9
:100C7000F2E04F0E511CF801A080B18036FE03C097
:100C8000692D70E002C06FEF7FEFC5010E94990AE5
:100C90004C018201F32DFF773F2E16C0280122E080
:100CA000420E511CF801A080B18036FE03C0692DB0
:100CB00070E002C06FEF7FEFC5010E948E0A4C0109
:100CC000F32DF0683F2E820133FC1BC0822D90E093
:100CD00088169906B0F4B60180E290E00E94E20A1C
:100CE0002A94F4CFF50137FC859137FE81915F019D
:100CF000B60190E00E94E20A21102A9421E0821AB3
:100D000091088114910471F7E8C0843611F0893696
:100D100041F5F80137FE07C06081718182819381BE
:100D20000C5F1F4F08C060817181072E000C880B7B
:100D3000990B0E5F1F4FF32DFF763F2E97FF09C0D3
:100D400090958095709561957F4F8F4F9F4FF0687C
:100D50003F2E2AE030E0A3010E94370B882E861830
:100D600045C0853731F4232D2F7EB22E2AE030E0A6
:100D700025C0932D997FB92E8F36C1F018F4883590
:100D800079F0B5C0803719F0883721F0B0C0E92F6D
:100D9000E061BE2EB4FE0DC0FB2DF460BF2E09C075
:100DA00034FE0AC0292F2660B22E06C028E030E0AB
:100DB00005C020E130E002C020E132E0F801B7FEDA
:100DC00007C060817181828193810C5F1F4F06C0D3
:100DD0006081718180E090E00E5F1F4FA3010E944F
:100DE000370B882E8618FB2DFF773F2E36FE0DC061
:100DF000232D2E7FA22E891458F434FE0BC032FC12
:100E000009C0832D8E7EA82E05C0B82CA32C03C04C
:100E1000B82C01C0B92CA4FE0FC0FE01E80DF11DD5
:100E20008081803321F49A2D997EA92E09C0A2FEDB
:100E300006C0B394B39404C08A2D867809F0B394A5
:100E4000A3FC11C0A0FE06C0B21488F4280C922C9A
:100E50009B180EC0B21460F4B60180E290E00E94CC
:100E6000E20AB394F7CFB21418F42B1802C0982CEE
:100E7000212CA4FE10C0B60180E390E00E94E20A9B
:100E8000A2FE17C0A1FC03C088E790E002C088E57D
:100E900090E0B6010CC08A2D867859F0A1FE02C000
:100EA0008BE201C080E2A7FC8DE2B60190E00E94D7
:100EB000E20A891438F4B60180E390E00E94E20A65
:100EC0009A94F7CF8A94F301E80DF11D8081B60161
:100ED00090E00E94E20A8110F5CF222009F442CE70
:100EE000B60180E290E00E94E20A2A94F6CFF60171
:100EF0008681978102C08FEF9FEF2B960FB6F894F3
:100F0000DEBF0FBECDBFDF91CF911F910F91FF903C
:100F1000EF90DF90CF90BF90AF909F908F907F9099
:100F20006F905F904F903F902F90089520FD09C0E3
:100F3000FC0123FD05C022FF02C07383628351833D
:100F40004083089544FD17C046FD17C0AB01BC01A6
:100F5000DA01FB01AA0FBB1FEE1FFF1F1094D1F790
:100F60004A0F5B1F6E1F7F1FCB01BA01660F771FF1
:100F7000881F991F09C033E001C034E0660F771F56
:100F8000881F991F3150D1F7620F711D811D911D6E
:100F900008950F931F93CF93DF938C01C8010E9494
:100FA000A40AEC0197FD08C00E947A0A892BB1F7C8
:100FB000B801CE010E941E0BCE01DF91CF911F918F
:100FC0000F9108958F929F92AF92BF92EF92FF92EE
:100FD0000F931F93CF93DF938C01D62F7A01B22EFC
:100FE0000E94A40A9C0133272B32310531F02D32A7
:100FF000310561F48B2D8068B82ED15011F480E05A
:1010000068C0C8010E94A40A97FDF9CFCB2DCD7FFF
:101010002B2D207309F58033F9F4AA24AA94AD0E80
:1010200009F443C0C8010E94A40A97FD3EC09C0178
:101030002F7D33272835310549F4C264D250A9F1F8
:10104000C8010E94A40A97FF07C02FC0B6FE02C0C5
:10105000C26001C0C261DA2D812C912C540120EDB7
:10106000280F283080F0C4FF04C0B8010E941E0B76
:1010700019C02A3040F0C6FFF8CF2F7D3FEE320F67
:10108000363098F727504C2FC501B4010E94A207B3
:101090004B015C01C260D15059F0C8010E94A40A02
:1010A00097FFDDCFC1FD04C0AACF812C912C540144
:1010B000C7FF08C0B094A09490948094811C911CA8
:1010C000A11CB11C2C2FB501A401C7010E949607D9
:1010D00081E0DF91CF911F910F91FF90EF90BF9032
:1010E000AF909F908F9008955F926F927F928F92B2
:1010F0009F92AF92BF92CF92DF92EF92FF920F93A7
:101100001F93CF93DF93CDB7DEB7A0970FB6F894B8
:10111000DEBF0FBECDBF5C01962E7A01F9018E01B4
:101120000F5F1F4F680180E2D8011D928A95E9F791
:10113000D50113968C9080E090E0612C712C30E00A
:1011400061E070E083FC259183FE21918F01522E96
:10115000211103C080E090E092C02E3511F4009779
:1011600051F1432F50E0481759073CF42D3559F100
:101170002D3219F4772009F103C0772009F46AC0F1
:10118000452D469546954695D601A40FB11D452D92
:1011900047708B0102C0000F111F4A95E2F7A801AA
:1011A0005C91452B4C93651459F0561410F45394EC
:1011B000E7CF5A94E5CF31E004C07724739401C09F
:1011C000712C0196BFCF772019F08E8180628E83BB
:1011D000311103C08824839417C0F6019E012F5D4E
:1011E0003F4F8081809581932E173F07D1F7F2CF33
:1011F000E114F10429F0D7018C93F70131967F01B6
:101200009A94812C9920F9F0C5010E94A40A97FDB7
:1012100018C0FC01FF2723E0F595E7952A95E1F733
:10122000EC0DFD1D208130E0AC014770552702C058
:10123000359527954A95E2F720FDDACFB5010E9452
:101240001E0B811087CFE114F10411F0D7011C921D
:10125000C80115C0422F469546954695D601A40F64
:10126000B11D422F47708B0102C0000F111F4A951C
:10127000E2F7A8015C91452B4C93622EA2CFA09679
:101280000FB6F894DEBF0FBECDBFDF91CF911F9197
:101290000F91FF90EF90DF90CF90BF90AF909F9015
:1012A0008F907F906F905F9008955F926F927F9282
:1012B0008F929F92AF92BF92CF92DF92EF92FF9266
:1012C0000F931F93CF93DF936C01EB015A01FC0145
:1012D00017821682512CF601E380FE01E3FC859112
:1012E000E3FE8191182FEF01882309F4EEC090E00E
:1012F0000E947A0A892B21F0C6010E94C907EBCF10
:10130000153241F4FE01E3FC1591E3FE1191EF016A
:10131000153281F4C6010E94A40A97FDD4C0412F62
:1013200050E09C01332724173507A9F2B6010E942B
:101330001E0BCBC01A3239F4E3FC1591E3FE119178
:10134000EF0101E001C000E0F12C20ED210F2A3077
:1013500080F402606F2D70E080E090E040E20E9437
:10136000A207F62EFE01E3FC1591E3FE1191EF01B9
:10137000ECCF01FF03C0F11003C0A7C0FF24FA9413
:10138000183619F01C3651F010C0FE01E3FC15911F
:10139000E3FE1191EF01183641F408600460FE018C
:1013A000E3FC1591E3FE1191EF01112309F48DC0C7
:1013B000612F70E084EE90E00E94830A892B09F48B
:1013C00084C000FD07C0F50180809180C5010296B0
:1013D0005C0102C0812C912C1E3651F4F60146812D
:1013E000578160E070E0202FC4010E94960773CF00
:1013F0001336A9F401FD02C0FF24F394C6010E9434
:10140000A40A97FD60C08114910429F0F40180833F
:10141000C40101964C01FA94F110F0CF50C01B3575
:1014200059F49E01A4016F2DC6010E947408EC01BD
:10143000892B09F044C03EC0C6010E94C90797FD30
:1014400042C01F3661F128F4143639F1193651F1D2
:1014500028C0133771F0153701F123C081149104AE
:1014600029F0F4016082C40101964C01FA94FF2036
:1014700071F0C6010E94A40A3C0197FD08C00E94B9
:101480007A0A892B59F3B601C3010E941E0B8114FD
:101490009104A9F0F401108212C0006203C000613F
:1014A00001C00064202FA4016F2DC6010E94E20735
:1014B000811105C0F6018381807329F406C000FD07
:1014C0000ACF539408CF552019F0852D90E002C023
:1014D0008FEF9FEFDF91CF911F910F91FF90EF90D2
:1014E000DF90CF90BF90AF909F908F907F906F9044
:1014F0005F90089591110C94950B803219F08950EA
:101500008550C8F70895FC010590061621F00020CB
:10151000D9F7C00108953197CF010895FC010590D6
:10152000615070400110D8F7809590958E0F9F1FE5
:101530000895FC016150704001900110D8F780952A
:1015400090958E0F9F1F0895CF93DF93EC012B8111
:1015500020FF33C026FF0AC02F7B2B838E819F8103
:1015600001969F838E838A8190E029C022FF0FC05D
:10157000E881F9818081082E000C990B009719F4FD
:1015800020622B831AC03196F983E8830EC0EA8566
:10159000FB85099597FF09C02B81019611F080E228
:1015A00001C080E1822B8B8308C02E813F812F5F99
:1015B0003F4F3F832E83992702C08FEF9FEFDF912C
:1015C000CF9108950F931F93CF93DF93FB01238156
:1015D00021FD03C08FEF9FEF2CC022FF16C0468174
:1015E0005781248135814217530744F4A081B1818A
:1015F0009D012F5F3F4F318320838C93268137815C
:101600002F5F3F4F3783268314C08B01EC01FB0112
:101610000084F185E02D0995892BE1F6D801169615
:101620008D919C911797019617969C938E93169780
:10163000CE01DF91CF911F910F910895FB0123817E
:1016400020FF12C026FD10C08F3F3FEF930761F0CF
:1016500082832F7D206423832681378121503109A5
:1016600037832683992708958FEF9FEF0895FA0116
:10167000AA27283051F1203181F1E8946F936E7FD1
:101680006E5F7F4F8F4F9F4FAF4FB1E03ED0B4E0C2
:101690003CD0670F781F891F9A1FA11D680F791F03
:1016A0008A1F911DA11D6A0F711D811D911DA11D14
:1016B00020D009F468943F912AE0269F1124301924
:1016C000305D3193DEF6CF010895462F4770405DBF
:1016D0004193B3E00FD0C9F7F6CF462F4F70405D6E
:1016E0004A3318F0495D31FD4052419302D0A9F7C9
:1016F000EACFB4E0A6959795879577956795BA95C3
:10170000C9F700976105710508959B01AC010A2E88
:1017100006945795479537952795BA95C9F7620F5F
:10172000731F841F951FA01D08959927882708956A
:04173000F894FFCF5B
:1017340030303030203030303020303020303020E5
:101744003030203030000000080472656164793A5A
:101754002000696E707574206572726F7221204169
:101764000063683A20256300696E707574206572A1
:10177400726F7221204200696E70757420657272F6
:101784006F7221204300696E707574206572726FE8
:101794007221204400696E707574206572726F72D4
:1017A40021204500696E707574206572726F722114
:1017B4002046002534582025345820253258202529
:1017C4003258202532582025325800657865633A0E
:0417D40020200000D1
:00000001FF
