:100000000C9472000C947C000C947C000C947C008A
:100010000C947C000C947C000C947C000C947C0070
:100020000C947C000C947C000C947C000C947C0060
:100030000C947C000C947C000C947C000C947C0050
:100040000C947C000C947C000C947C000C947C0040
:100050000C947C000C947C000C947C000C947C0030
:100060000C947C000C947C000C947C000C947C0020
:100070000C947C000C947C000C947C000C947C0010
:100080000C947C000C947C000C947C000C947C0000
:100090000C947C000C947C000C947C000C947C00F0
:1000A0000C947C000C947C000C947C000C947C00E0
:1000B0000C947C000C947C000C947C000C947C00D0
:1000C0000C947C000C947C000C947C000C947C00C0
:1000D0000C947C000C947C000C947C000C947C00B0
:1000E0000C947C0011241FBECFEFD1E2DEBFCDBF48
:1000F0000E940A010C94A6010C94000000C080919B
:10010000060185FDFCCF8091060185FD04C080912C
:10011000060185FFFCCF089500C08091060186FD91
:10012000FCCF8091060186FD04C08091060186FF08
:10013000FCCF2FE130E000C08091060185FDFCCFAF
:100140008091060185FD04C08091060185FFFCCFEA
:100150002150310989F7089520910601207130E07E
:1001600090E02817390739F480910601807190E0FA
:1001700082179307C9F38091060180710895109248
:10018000C50083E38093C40088E18093C10086E0CA
:100190008093C2000895FC012081222379F0662318
:1001A00069F031969091C00095FFFCCF2093C60076
:1001B00061502191222311F06111F4CF0895FC01C7
:1001C0002081222379F0662369F031969091C00056
:1001D00095FFFCCF2093C60061502191222311F09E
:1001E0006111F4CF8091C00085FFFCCF8AE080933D
:1001F000C60008958091C00087FFFCCF8091C600A3
:1002000008958091C00087FD02C080E0089580912C
:10021000C60008958FE0809307018EE08093080167
:100220008FEF81B912B887B918B880930A0110927C
:100230000B0180E090E082B998B980930B01209186
:1002400008012B7F20930801209108012D7F209326
:10025000080125E02A95F1F70000209108012260AD
:100260002093080120910801246020930801019641
:10027000811524E09207F9F680910801816080934E
:10028000080180910801877F8093080118B862E017
:1002900000C08091060186FDFCCF8091060186FD9D
:1002A00004C08091060186FFFCCF2FE130E000C042
:1002B0008091060185FDFCCF8091060185FD04C07B
:1002C0008091060185FFFCCF2150310989F780918B
:1002D0000601382F307120E040910601407150E056
:1002E000832F90E04817590739F4809106018071F7
:1002F00090E048175907C9F380910601382F3071F3
:1003000084FF22C018B8809108018B7F8093080178
:1003100080E082B9982F920F90930B019091080181
:100320009D7F90930801909108019260909308013D
:100330008F5F823371F78091080184608093080198
:100340002F5F203F49F6A5CF68B9DDCFF894FFCFE6
:00000001FF
